<!DOCTYPE html><html lang="en"><head><meta charset="utf-8"><meta name="viewport" content="width=device-width, initial-scale=1.0"><meta name="generator" content="rustdoc"><meta name="description" content="Source of the Rust file `crates/eest_types/src/state/mod.rs`."><title>mod.rs - source</title><script>if(window.location.protocol!=="file:")document.head.insertAdjacentHTML("beforeend","SourceSerif4-Regular-6b053e98.ttf.woff2,FiraSans-Italic-81dc35de.woff2,FiraSans-Regular-0fe48ade.woff2,FiraSans-MediumItalic-ccf7e434.woff2,FiraSans-Medium-e1aa3f0a.woff2,SourceCodePro-Regular-8badfe75.ttf.woff2,SourceCodePro-Semibold-aa29a496.ttf.woff2".split(",").map(f=>`<link rel="preload" as="font" type="font/woff2"href="../../../static.files/${f}">`).join(""))</script><link rel="stylesheet" href="../../../static.files/normalize-9960930a.css"><link rel="stylesheet" href="../../../static.files/rustdoc-e56847b5.css"><meta name="rustdoc-vars" data-root-path="../../../" data-static-root-path="../../../static.files/" data-current-crate="eest_types" data-themes="" data-resource-suffix="" data-rustdoc-version="1.92.0-nightly (fa3155a64 2025-09-30)" data-channel="nightly" data-search-js="search-e256b49e.js" data-stringdex-js="stringdex-828709d0.js" data-settings-js="settings-c38705f0.js" ><script src="../../../static.files/storage-e2aeef58.js"></script><script defer src="../../../static.files/src-script-813739b1.js"></script><script defer src="../../../src-files.js"></script><script defer src="../../../static.files/main-ce535bd0.js"></script><noscript><link rel="stylesheet" href="../../../static.files/noscript-263c88ec.css"></noscript><link rel="alternate icon" type="image/png" href="../../../static.files/favicon-32x32-eab170b8.png"><link rel="icon" type="image/svg+xml" href="../../../static.files/favicon-044be391.svg"></head><body class="rustdoc src"><!--[if lte IE 11]><div class="warning">This old browser is unsupported and will most likely display funky things.</div><![endif]--><nav class="sidebar"><div class="src-sidebar-title"><h2>Files</h2></div></nav><div class="sidebar-resizer" title="Drag to resize sidebar"></div><main><section id="main-content" class="content"><div class="main-heading"><h1><div class="sub-heading">eest_types/state/</div>mod.rs</h1><rustdoc-toolbar></rustdoc-toolbar></div><div class="example-wrap digits-3"><pre class="rust"><code><a href=#1 id=1 data-nosnippet>1</a><span class="kw">mod </span>env;
<a href=#2 id=2 data-nosnippet>2</a><span class="kw">mod </span>transaction;
<a href=#3 id=3 data-nosnippet>3</a>
<a href=#4 id=4 data-nosnippet>4</a><span class="kw">pub use </span>env::<span class="kw-2">*</span>;
<a href=#5 id=5 data-nosnippet>5</a><span class="kw">pub use </span>transaction::<span class="kw-2">*</span>;
<a href=#6 id=6 data-nosnippet>6</a>
<a href=#7 id=7 data-nosnippet>7</a><span class="kw">use </span>serde::Deserialize;
<a href=#8 id=8 data-nosnippet>8</a><span class="kw">use </span>std::collections::{BTreeMap, HashMap};
<a href=#9 id=9 data-nosnippet>9</a>
<a href=#10 id=10 data-nosnippet>10</a><span class="kw">use crate</span>::{AccountInfo, Config, SpecName};
<a href=#11 id=11 data-nosnippet>11</a><span class="kw">use </span>cfx_rpc_primitives::Bytes;
<a href=#12 id=12 data-nosnippet>12</a><span class="kw">use </span>cfx_types::{Address, H256};
<a href=#13 id=13 data-nosnippet>13</a>
<a href=#14 id=14 data-nosnippet>14</a><span class="doccomment">/// State test indexed state result deserialization.
<a href=#15 id=15 data-nosnippet>15</a></span><span class="attr">#[derive(Debug, PartialEq, Eq, Deserialize)]
<a href=#16 id=16 data-nosnippet>16</a>#[serde(rename_all = <span class="string">"camelCase"</span>, deny_unknown_fields)]
<a href=#17 id=17 data-nosnippet>17</a></span><span class="kw">pub struct </span>StateTest {
<a href=#18 id=18 data-nosnippet>18</a>    <span class="kw">pub </span>expect_exception: <span class="prelude-ty">Option</span>&lt;String&gt;,
<a href=#19 id=19 data-nosnippet>19</a>
<a href=#20 id=20 data-nosnippet>20</a>    <span class="doccomment">/// Indexes
<a href=#21 id=21 data-nosnippet>21</a>    </span><span class="kw">pub </span>indexes: TxPartIndices,
<a href=#22 id=22 data-nosnippet>22</a>    <span class="doccomment">/// Post state hash
<a href=#23 id=23 data-nosnippet>23</a>    </span><span class="kw">pub </span>hash: H256,
<a href=#24 id=24 data-nosnippet>24</a>    <span class="comment">// /// Post state
<a href=#25 id=25 data-nosnippet>25</a>    // #[serde(default)]
<a href=#26 id=26 data-nosnippet>26</a>    // pub post_state: HashMap&lt;Address, AccountInfo&gt;,
<a href=#27 id=27 data-nosnippet>27</a>    </span><span class="doccomment">/// Logs root
<a href=#28 id=28 data-nosnippet>28</a>    </span><span class="kw">pub </span>logs: H256,
<a href=#29 id=29 data-nosnippet>29</a>
<a href=#30 id=30 data-nosnippet>30</a>    <span class="doccomment">/// Output state.
<a href=#31 id=31 data-nosnippet>31</a>    ///
<a href=#32 id=32 data-nosnippet>32</a>    /// Note: Not used.
<a href=#33 id=33 data-nosnippet>33</a>    </span><span class="attr">#[serde(default)]
<a href=#34 id=34 data-nosnippet>34</a>    </span><span class="kw">pub </span>state: HashMap&lt;Address, AccountInfo&gt;,
<a href=#35 id=35 data-nosnippet>35</a>
<a href=#36 id=36 data-nosnippet>36</a>    <span class="doccomment">/// Tx bytes
<a href=#37 id=37 data-nosnippet>37</a>    </span><span class="kw">pub </span>txbytes: <span class="prelude-ty">Option</span>&lt;Bytes&gt;,
<a href=#38 id=38 data-nosnippet>38</a>}
<a href=#39 id=39 data-nosnippet>39</a>
<a href=#40 id=40 data-nosnippet>40</a><span class="doccomment">/// Single test unit struct
<a href=#41 id=41 data-nosnippet>41</a></span><span class="attr">#[derive(Debug, PartialEq, Eq, Deserialize)]
<a href=#42 id=42 data-nosnippet>42</a></span><span class="comment">//#[serde(deny_unknown_fields)]
<a href=#43 id=43 data-nosnippet>43</a>// field config
<a href=#44 id=44 data-nosnippet>44</a></span><span class="kw">pub struct </span>StateTestUnit {
<a href=#45 id=45 data-nosnippet>45</a>    <span class="doccomment">/// Test info is optional.
<a href=#46 id=46 data-nosnippet>46</a>    </span><span class="attr">#[serde(default, rename = <span class="string">"_info"</span>)]
<a href=#47 id=47 data-nosnippet>47</a>    </span><span class="kw">pub </span>info: <span class="prelude-ty">Option</span>&lt;serde_json::Value&gt;,
<a href=#48 id=48 data-nosnippet>48</a>
<a href=#49 id=49 data-nosnippet>49</a>    <span class="kw">pub </span>env: Env,
<a href=#50 id=50 data-nosnippet>50</a>    <span class="kw">pub </span>pre: HashMap&lt;Address, AccountInfo&gt;,
<a href=#51 id=51 data-nosnippet>51</a>    <span class="kw">pub </span>post: BTreeMap&lt;SpecName, Vec&lt;StateTest&gt;&gt;,
<a href=#52 id=52 data-nosnippet>52</a>    <span class="kw">pub </span>transaction: TransactionParts,
<a href=#53 id=53 data-nosnippet>53</a>    <span class="attr">#[serde(default)]
<a href=#54 id=54 data-nosnippet>54</a>    </span><span class="kw">pub </span>out: <span class="prelude-ty">Option</span>&lt;Bytes&gt;,
<a href=#55 id=55 data-nosnippet>55</a>    <span class="kw">pub </span>config: Config,
<a href=#56 id=56 data-nosnippet>56</a>}
<a href=#57 id=57 data-nosnippet>57</a>
<a href=#58 id=58 data-nosnippet>58</a><span class="doccomment">/// The top level test suite struct
<a href=#59 id=59 data-nosnippet>59</a></span><span class="attr">#[derive(Debug, PartialEq, Eq, Deserialize)]
<a href=#60 id=60 data-nosnippet>60</a></span><span class="kw">pub struct </span>StateTestSuite(<span class="kw">pub </span>BTreeMap&lt;String, StateTestUnit&gt;);
<a href=#61 id=61 data-nosnippet>61</a>
<a href=#62 id=62 data-nosnippet>62</a><span class="attr">#[cfg(test)]
<a href=#63 id=63 data-nosnippet>63</a></span><span class="kw">mod </span>tests {
<a href=#64 id=64 data-nosnippet>64</a>    <span class="kw">use super</span>::<span class="kw-2">*</span>;
<a href=#65 id=65 data-nosnippet>65</a>
<a href=#66 id=66 data-nosnippet>66</a>    <span class="attr">#[test]
<a href=#67 id=67 data-nosnippet>67</a>    </span><span class="kw">fn </span>deserialize_test_unit() {
<a href=#68 id=68 data-nosnippet>68</a>        <span class="kw">let </span>json = <span class="string">r#"
<a href=#69 id=69 data-nosnippet>69</a>        {
<a href=#70 id=70 data-nosnippet>70</a>            "env": {
<a href=#71 id=71 data-nosnippet>71</a>                "currentCoinbase": "0x2adc25665018aa1fe0e6bc666dac8fc2697ff9ba",
<a href=#72 id=72 data-nosnippet>72</a>                "currentGasLimit": "0x016345785d8a0000",
<a href=#73 id=73 data-nosnippet>73</a>                "currentNumber": "0x01",
<a href=#74 id=74 data-nosnippet>74</a>                "currentTimestamp": "0x03e8",
<a href=#75 id=75 data-nosnippet>75</a>                "currentRandom": "0x0000000000000000000000000000000000000000000000000000000000000000",
<a href=#76 id=76 data-nosnippet>76</a>                "currentDifficulty": "0x00",
<a href=#77 id=77 data-nosnippet>77</a>                "currentBaseFee": "0x07",
<a href=#78 id=78 data-nosnippet>78</a>                "currentExcessBlobGas": "0x0e0000"
<a href=#79 id=79 data-nosnippet>79</a>            },
<a href=#80 id=80 data-nosnippet>80</a>            "pre": {
<a href=#81 id=81 data-nosnippet>81</a>                "0xa94f5374fce5edbc8e2a8697c15331677e6ebf0b": {
<a href=#82 id=82 data-nosnippet>82</a>                    "nonce": "0x00",
<a href=#83 id=83 data-nosnippet>83</a>                    "balance": "0x04b2e7dc",
<a href=#84 id=84 data-nosnippet>84</a>                    "code": "0x",
<a href=#85 id=85 data-nosnippet>85</a>                    "storage": {}
<a href=#86 id=86 data-nosnippet>86</a>                }
<a href=#87 id=87 data-nosnippet>87</a>            },
<a href=#88 id=88 data-nosnippet>88</a>            "transaction": {
<a href=#89 id=89 data-nosnippet>89</a>                "nonce": "0x00",
<a href=#90 id=90 data-nosnippet>90</a>                "maxPriorityFeePerGas": "0x00",
<a href=#91 id=91 data-nosnippet>91</a>                "maxFeePerGas": "0x07",
<a href=#92 id=92 data-nosnippet>92</a>                "gasLimit": [
<a href=#93 id=93 data-nosnippet>93</a>                    "0x6a44"
<a href=#94 id=94 data-nosnippet>94</a>                ],
<a href=#95 id=95 data-nosnippet>95</a>                "to": "0x8a0a19589531694250d570040a0c4b74576919b8",
<a href=#96 id=96 data-nosnippet>96</a>                "value": [
<a href=#97 id=97 data-nosnippet>97</a>                    "0x00"
<a href=#98 id=98 data-nosnippet>98</a>                ],
<a href=#99 id=99 data-nosnippet>99</a>                "data": [
<a href=#100 id=100 data-nosnippet>100</a>                    "0x00"
<a href=#101 id=101 data-nosnippet>101</a>                ],
<a href=#102 id=102 data-nosnippet>102</a>                "accessLists": [
<a href=#103 id=103 data-nosnippet>103</a>                    [
<a href=#104 id=104 data-nosnippet>104</a>                        {
<a href=#105 id=105 data-nosnippet>105</a>                            "address": "0x0000000000000000000000000000000000000064",
<a href=#106 id=106 data-nosnippet>106</a>                            "storageKeys": [
<a href=#107 id=107 data-nosnippet>107</a>                                "0x0000000000000000000000000000000000000000000000000000000000000064",
<a href=#108 id=108 data-nosnippet>108</a>                                "0x00000000000000000000000000000000000000000000000000000000000000c8"
<a href=#109 id=109 data-nosnippet>109</a>                            ]
<a href=#110 id=110 data-nosnippet>110</a>                        }
<a href=#111 id=111 data-nosnippet>111</a>                    ]
<a href=#112 id=112 data-nosnippet>112</a>                ],
<a href=#113 id=113 data-nosnippet>113</a>                "maxFeePerBlobGas": "0x64",
<a href=#114 id=114 data-nosnippet>114</a>                "blobVersionedHashes": [
<a href=#115 id=115 data-nosnippet>115</a>                    "0x0100000000000000000000000000000000000000000000000000000000000000",
<a href=#116 id=116 data-nosnippet>116</a>                    "0x0100000000000000000000000000000000000000000000000000000000000001",
<a href=#117 id=117 data-nosnippet>117</a>                    "0x0100000000000000000000000000000000000000000000000000000000000002",
<a href=#118 id=118 data-nosnippet>118</a>                    "0x0100000000000000000000000000000000000000000000000000000000000003",
<a href=#119 id=119 data-nosnippet>119</a>                    "0x0100000000000000000000000000000000000000000000000000000000000004",
<a href=#120 id=120 data-nosnippet>120</a>                    "0x0100000000000000000000000000000000000000000000000000000000000005"
<a href=#121 id=121 data-nosnippet>121</a>                ],
<a href=#122 id=122 data-nosnippet>122</a>                "sender": "0xa94f5374fce5edbc8e2a8697c15331677e6ebf0b",
<a href=#123 id=123 data-nosnippet>123</a>                "secretKey": "0x45a915e4d060149eb4365960e6a7a45f334393093061116b197e3240065ff2d8"
<a href=#124 id=124 data-nosnippet>124</a>            },
<a href=#125 id=125 data-nosnippet>125</a>            "post": {
<a href=#126 id=126 data-nosnippet>126</a>                "Cancun": [
<a href=#127 id=127 data-nosnippet>127</a>                    {
<a href=#128 id=128 data-nosnippet>128</a>                        "hash": "0x70151ef6e11989505a79932f38c191bdbb22a2ff455460ddc53ef3b056d378ff",
<a href=#129 id=129 data-nosnippet>129</a>                        "logs": "0x1dcc4de8dec75d7aab85b567b6ccd41ad312451b948a7413f0a142fd40d49347",
<a href=#130 id=130 data-nosnippet>130</a>                        "txbytes": "0x03f9018701808007826a44948a0a19589531694250d570040a0c4b74576919b88000f85bf859940000000000000000000000000000000000000064f842a00000000000000000000000000000000000000000000000000000000000000064a000000000000000000000000000000000000000000000000000000000000000c864f8c6a00100000000000000000000000000000000000000000000000000000000000000a00100000000000000000000000000000000000000000000000000000000000001a00100000000000000000000000000000000000000000000000000000000000002a00100000000000000000000000000000000000000000000000000000000000003a00100000000000000000000000000000000000000000000000000000000000004a0010000000000000000000000000000000000000000000000000000000000000501a01fd714a1b7065e945bffbe064dfe72b1f0a9f482cd3d03ffa78884bd9331b19ea04066aba133e51239e007914fc7ee21bd2591c39d1d201b3b813f03d2f4ca9088",
<a href=#131 id=131 data-nosnippet>131</a>                        "indexes": {
<a href=#132 id=132 data-nosnippet>132</a>                            "data": 0,
<a href=#133 id=133 data-nosnippet>133</a>                            "gas": 0,
<a href=#134 id=134 data-nosnippet>134</a>                            "value": 0
<a href=#135 id=135 data-nosnippet>135</a>                        },
<a href=#136 id=136 data-nosnippet>136</a>                        "state": {
<a href=#137 id=137 data-nosnippet>137</a>                            "0xa94f5374fce5edbc8e2a8697c15331677e6ebf0b": {
<a href=#138 id=138 data-nosnippet>138</a>                                "nonce": "0x01",
<a href=#139 id=139 data-nosnippet>139</a>                                "balance": "0x04a40000",
<a href=#140 id=140 data-nosnippet>140</a>                                "code": "0x",
<a href=#141 id=141 data-nosnippet>141</a>                                "storage": {}
<a href=#142 id=142 data-nosnippet>142</a>                            }
<a href=#143 id=143 data-nosnippet>143</a>                        }
<a href=#144 id=144 data-nosnippet>144</a>                    }
<a href=#145 id=145 data-nosnippet>145</a>                ]
<a href=#146 id=146 data-nosnippet>146</a>            },
<a href=#147 id=147 data-nosnippet>147</a>            "config": {
<a href=#148 id=148 data-nosnippet>148</a>                "blobSchedule": {
<a href=#149 id=149 data-nosnippet>149</a>                    "Cancun": {
<a href=#150 id=150 data-nosnippet>150</a>                        "target": "0x03",
<a href=#151 id=151 data-nosnippet>151</a>                        "max": "0x06",
<a href=#152 id=152 data-nosnippet>152</a>                        "baseFeeUpdateFraction": "0x32f0ed"
<a href=#153 id=153 data-nosnippet>153</a>                    }
<a href=#154 id=154 data-nosnippet>154</a>                },
<a href=#155 id=155 data-nosnippet>155</a>                "chainid": "0x01"
<a href=#156 id=156 data-nosnippet>156</a>            },
<a href=#157 id=157 data-nosnippet>157</a>            "_info": {
<a href=#158 id=158 data-nosnippet>158</a>                "hash": "0xd992bae1a97e5e6134325c6b02b86087700fef37fa53a6f5a72c50829d8fca77",
<a href=#159 id=159 data-nosnippet>159</a>                "comment": "`execution-spec-tests` generated test",
<a href=#160 id=160 data-nosnippet>160</a>                "filling-transition-tool": "ethereum-spec-evm-resolver 0.0.5",
<a href=#161 id=161 data-nosnippet>161</a>                "description": "Test function documentation:\n\n    Check that transaction is accepted when user can exactly afford the blob gas specified (and\n    max_fee_per_gas would be enough for current block).\n\n    - Transactions with max fee equal or higher than current block base fee\n    - Transactions with and without priority fee\n    - Transactions with and without value\n    - Transactions with and without calldata\n    - Transactions with max fee per blob gas lower or higher than the priority fee",
<a href=#162 id=162 data-nosnippet>162</a>                "url": "https://github.com/ethereum/execution-spec-tests/tree/v4.1.0/tests/cancun/eip4844_blobs/test_blob_txs.py#L633",
<a href=#163 id=163 data-nosnippet>163</a>                "fixture-format": "state_test",
<a href=#164 id=164 data-nosnippet>164</a>                "reference-spec": "https://github.com/ethereum/EIPs/blob/master/EIPS/eip-4844.md",
<a href=#165 id=165 data-nosnippet>165</a>                "reference-spec-version": "de2e4a46ad93fc04e6fe3174dc6e90a3307bdb5f",
<a href=#166 id=166 data-nosnippet>166</a>                "eels-resolution": {
<a href=#167 id=167 data-nosnippet>167</a>                    "git-url": "https://github.com/ethereum/execution-specs.git",
<a href=#168 id=168 data-nosnippet>168</a>                    "branch": "master",
<a href=#169 id=169 data-nosnippet>169</a>                    "commit": "78fb726158c69d8fa164e28f195fabf6ab59b915"
<a href=#170 id=170 data-nosnippet>170</a>                }
<a href=#171 id=171 data-nosnippet>171</a>            }
<a href=#172 id=172 data-nosnippet>172</a>        }
<a href=#173 id=173 data-nosnippet>173</a>        "#</span>;
<a href=#174 id=174 data-nosnippet>174</a>        <span class="kw">let </span>test_unit: StateTestUnit = serde_json::from_str(json).unwrap();
<a href=#175 id=175 data-nosnippet>175</a>        <span class="macro">println!</span>(<span class="string">"{:?}"</span>, test_unit);
<a href=#176 id=176 data-nosnippet>176</a>    }
<a href=#177 id=177 data-nosnippet>177</a>}</code></pre></div></section></main></body></html>