<!DOCTYPE html><html lang="en"><head><meta charset="utf-8"><meta name="viewport" content="width=device-width, initial-scale=1.0"><meta name="generator" content="rustdoc"><meta name="description" content="Source of the Rust file `crates/eest_types/src/state/mod.rs`."><title>mod.rs - source</title><script>if(window.location.protocol!=="file:")document.head.insertAdjacentHTML("beforeend","SourceSerif4-Regular-6b053e98.ttf.woff2,FiraSans-Italic-81dc35de.woff2,FiraSans-Regular-0fe48ade.woff2,FiraSans-MediumItalic-ccf7e434.woff2,FiraSans-Medium-e1aa3f0a.woff2,SourceCodePro-Regular-8badfe75.ttf.woff2,SourceCodePro-Semibold-aa29a496.ttf.woff2".split(",").map(f=>`<link rel="preload" as="font" type="font/woff2" crossorigin href="../../../static.files/${f}">`).join(""))</script><link rel="stylesheet" href="../../../static.files/normalize-9960930a.css"><link rel="stylesheet" href="../../../static.files/rustdoc-cf3c48c1.css"><meta name="rustdoc-vars" data-root-path="../../../" data-static-root-path="../../../static.files/" data-current-crate="eest_types" data-themes="" data-resource-suffix="" data-rustdoc-version="1.86.0-nightly (854f22563 2025-01-31)" data-channel="nightly" data-search-js="search-2d513d54.js" data-settings-js="settings-6dad6058.js" ><script src="../../../static.files/storage-302de22f.js"></script><script defer src="../../../static.files/src-script-8fee9dc5.js"></script><script defer src="../../../src-files.js"></script><script defer src="../../../static.files/main-9b5d7e41.js"></script><noscript><link rel="stylesheet" href="../../../static.files/noscript-893ab5e7.css"></noscript><link rel="alternate icon" type="image/png" href="../../../static.files/favicon-32x32-6580c154.png"><link rel="icon" type="image/svg+xml" href="../../../static.files/favicon-044be391.svg"></head><body class="rustdoc src"><!--[if lte IE 11]><div class="warning">This old browser is unsupported and will most likely display funky things.</div><![endif]--><nav class="sidebar"><div class="src-sidebar-title"><h2>Files</h2></div></nav><div class="sidebar-resizer"></div><main><rustdoc-search></rustdoc-search><section id="main-content" class="content"><div class="main-heading"><h1><div class="sub-heading">eest_types/state/</div>mod.rs</h1><rustdoc-toolbar></rustdoc-toolbar></div><div class="example-wrap"><div data-nosnippet><pre class="src-line-numbers">
<a href="#1" id="1">1</a>
<a href="#2" id="2">2</a>
<a href="#3" id="3">3</a>
<a href="#4" id="4">4</a>
<a href="#5" id="5">5</a>
<a href="#6" id="6">6</a>
<a href="#7" id="7">7</a>
<a href="#8" id="8">8</a>
<a href="#9" id="9">9</a>
<a href="#10" id="10">10</a>
<a href="#11" id="11">11</a>
<a href="#12" id="12">12</a>
<a href="#13" id="13">13</a>
<a href="#14" id="14">14</a>
<a href="#15" id="15">15</a>
<a href="#16" id="16">16</a>
<a href="#17" id="17">17</a>
<a href="#18" id="18">18</a>
<a href="#19" id="19">19</a>
<a href="#20" id="20">20</a>
<a href="#21" id="21">21</a>
<a href="#22" id="22">22</a>
<a href="#23" id="23">23</a>
<a href="#24" id="24">24</a>
<a href="#25" id="25">25</a>
<a href="#26" id="26">26</a>
<a href="#27" id="27">27</a>
<a href="#28" id="28">28</a>
<a href="#29" id="29">29</a>
<a href="#30" id="30">30</a>
<a href="#31" id="31">31</a>
<a href="#32" id="32">32</a>
<a href="#33" id="33">33</a>
<a href="#34" id="34">34</a>
<a href="#35" id="35">35</a>
<a href="#36" id="36">36</a>
<a href="#37" id="37">37</a>
<a href="#38" id="38">38</a>
<a href="#39" id="39">39</a>
<a href="#40" id="40">40</a>
<a href="#41" id="41">41</a>
<a href="#42" id="42">42</a>
<a href="#43" id="43">43</a>
<a href="#44" id="44">44</a>
<a href="#45" id="45">45</a>
<a href="#46" id="46">46</a>
<a href="#47" id="47">47</a>
<a href="#48" id="48">48</a>
<a href="#49" id="49">49</a>
<a href="#50" id="50">50</a>
<a href="#51" id="51">51</a>
<a href="#52" id="52">52</a>
<a href="#53" id="53">53</a>
<a href="#54" id="54">54</a>
<a href="#55" id="55">55</a>
<a href="#56" id="56">56</a>
<a href="#57" id="57">57</a>
<a href="#58" id="58">58</a>
<a href="#59" id="59">59</a>
<a href="#60" id="60">60</a>
<a href="#61" id="61">61</a>
<a href="#62" id="62">62</a>
<a href="#63" id="63">63</a>
<a href="#64" id="64">64</a>
<a href="#65" id="65">65</a>
<a href="#66" id="66">66</a>
<a href="#67" id="67">67</a>
<a href="#68" id="68">68</a>
<a href="#69" id="69">69</a>
<a href="#70" id="70">70</a>
<a href="#71" id="71">71</a>
<a href="#72" id="72">72</a>
<a href="#73" id="73">73</a>
<a href="#74" id="74">74</a>
<a href="#75" id="75">75</a>
<a href="#76" id="76">76</a>
<a href="#77" id="77">77</a>
<a href="#78" id="78">78</a>
<a href="#79" id="79">79</a>
<a href="#80" id="80">80</a>
<a href="#81" id="81">81</a>
<a href="#82" id="82">82</a>
<a href="#83" id="83">83</a>
<a href="#84" id="84">84</a>
<a href="#85" id="85">85</a>
<a href="#86" id="86">86</a>
<a href="#87" id="87">87</a>
<a href="#88" id="88">88</a>
<a href="#89" id="89">89</a>
<a href="#90" id="90">90</a>
<a href="#91" id="91">91</a>
<a href="#92" id="92">92</a>
<a href="#93" id="93">93</a>
<a href="#94" id="94">94</a>
<a href="#95" id="95">95</a>
<a href="#96" id="96">96</a>
<a href="#97" id="97">97</a>
<a href="#98" id="98">98</a>
<a href="#99" id="99">99</a>
<a href="#100" id="100">100</a>
<a href="#101" id="101">101</a>
<a href="#102" id="102">102</a>
<a href="#103" id="103">103</a>
<a href="#104" id="104">104</a>
<a href="#105" id="105">105</a>
<a href="#106" id="106">106</a>
<a href="#107" id="107">107</a>
<a href="#108" id="108">108</a>
<a href="#109" id="109">109</a>
<a href="#110" id="110">110</a>
<a href="#111" id="111">111</a>
<a href="#112" id="112">112</a>
<a href="#113" id="113">113</a>
<a href="#114" id="114">114</a>
<a href="#115" id="115">115</a>
<a href="#116" id="116">116</a>
<a href="#117" id="117">117</a>
<a href="#118" id="118">118</a>
<a href="#119" id="119">119</a>
<a href="#120" id="120">120</a>
<a href="#121" id="121">121</a>
<a href="#122" id="122">122</a>
<a href="#123" id="123">123</a>
<a href="#124" id="124">124</a>
<a href="#125" id="125">125</a>
<a href="#126" id="126">126</a>
<a href="#127" id="127">127</a>
<a href="#128" id="128">128</a>
<a href="#129" id="129">129</a>
<a href="#130" id="130">130</a>
<a href="#131" id="131">131</a>
<a href="#132" id="132">132</a>
<a href="#133" id="133">133</a>
<a href="#134" id="134">134</a>
<a href="#135" id="135">135</a>
<a href="#136" id="136">136</a>
<a href="#137" id="137">137</a>
<a href="#138" id="138">138</a>
<a href="#139" id="139">139</a>
<a href="#140" id="140">140</a>
<a href="#141" id="141">141</a>
<a href="#142" id="142">142</a>
<a href="#143" id="143">143</a>
<a href="#144" id="144">144</a>
<a href="#145" id="145">145</a>
<a href="#146" id="146">146</a>
<a href="#147" id="147">147</a>
<a href="#148" id="148">148</a>
<a href="#149" id="149">149</a>
<a href="#150" id="150">150</a>
<a href="#151" id="151">151</a>
<a href="#152" id="152">152</a>
<a href="#153" id="153">153</a>
<a href="#154" id="154">154</a>
<a href="#155" id="155">155</a>
<a href="#156" id="156">156</a>
<a href="#157" id="157">157</a>
<a href="#158" id="158">158</a>
<a href="#159" id="159">159</a>
<a href="#160" id="160">160</a>
<a href="#161" id="161">161</a>
<a href="#162" id="162">162</a>
<a href="#163" id="163">163</a>
<a href="#164" id="164">164</a>
<a href="#165" id="165">165</a>
<a href="#166" id="166">166</a>
<a href="#167" id="167">167</a>
<a href="#168" id="168">168</a>
<a href="#169" id="169">169</a>
<a href="#170" id="170">170</a>
<a href="#171" id="171">171</a>
<a href="#172" id="172">172</a>
<a href="#173" id="173">173</a>
<a href="#174" id="174">174</a>
<a href="#175" id="175">175</a>
<a href="#176" id="176">176</a>
<a href="#177" id="177">177</a></pre></div><pre class="rust"><code><span class="kw">mod </span>env;
<span class="kw">mod </span>transaction;

<span class="kw">pub use </span>env::<span class="kw-2">*</span>;
<span class="kw">pub use </span>transaction::<span class="kw-2">*</span>;

<span class="kw">use </span>serde::Deserialize;
<span class="kw">use </span>std::collections::{BTreeMap, HashMap};

<span class="kw">use crate</span>::{AccountInfo, Config, SpecName};
<span class="kw">use </span>cfx_rpc_primitives::Bytes;
<span class="kw">use </span>cfx_types::{Address, H256};

<span class="doccomment">/// State test indexed state result deserialization.
</span><span class="attr">#[derive(Debug, PartialEq, Eq, Deserialize)]
#[serde(rename_all = <span class="string">"camelCase"</span>, deny_unknown_fields)]
</span><span class="kw">pub struct </span>StateTest {
    <span class="kw">pub </span>expect_exception: <span class="prelude-ty">Option</span>&lt;String&gt;,

    <span class="doccomment">/// Indexes
    </span><span class="kw">pub </span>indexes: TxPartIndices,
    <span class="doccomment">/// Post state hash
    </span><span class="kw">pub </span>hash: H256,
    <span class="comment">// /// Post state
    // #[serde(default)]
    // pub post_state: HashMap&lt;Address, AccountInfo&gt;,
    </span><span class="doccomment">/// Logs root
    </span><span class="kw">pub </span>logs: H256,

    <span class="doccomment">/// Output state.
    ///
    /// Note: Not used.
    </span><span class="attr">#[serde(default)]
    </span><span class="kw">pub </span>state: HashMap&lt;Address, AccountInfo&gt;,

    <span class="doccomment">/// Tx bytes
    </span><span class="kw">pub </span>txbytes: <span class="prelude-ty">Option</span>&lt;Bytes&gt;,
}

<span class="doccomment">/// Single test unit struct
</span><span class="attr">#[derive(Debug, PartialEq, Eq, Deserialize)]
</span><span class="comment">//#[serde(deny_unknown_fields)]
// field config
</span><span class="kw">pub struct </span>StateTestUnit {
    <span class="doccomment">/// Test info is optional.
    </span><span class="attr">#[serde(default, rename = <span class="string">"_info"</span>)]
    </span><span class="kw">pub </span>info: <span class="prelude-ty">Option</span>&lt;serde_json::Value&gt;,

    <span class="kw">pub </span>env: Env,
    <span class="kw">pub </span>pre: HashMap&lt;Address, AccountInfo&gt;,
    <span class="kw">pub </span>post: BTreeMap&lt;SpecName, Vec&lt;StateTest&gt;&gt;,
    <span class="kw">pub </span>transaction: TransactionParts,
    <span class="attr">#[serde(default)]
    </span><span class="kw">pub </span>out: <span class="prelude-ty">Option</span>&lt;Bytes&gt;,
    <span class="kw">pub </span>config: Config,
}

<span class="doccomment">/// The top level test suite struct
</span><span class="attr">#[derive(Debug, PartialEq, Eq, Deserialize)]
</span><span class="kw">pub struct </span>StateTestSuite(<span class="kw">pub </span>BTreeMap&lt;String, StateTestUnit&gt;);

<span class="attr">#[cfg(test)]
</span><span class="kw">mod </span>tests {
    <span class="kw">use super</span>::<span class="kw-2">*</span>;

    <span class="attr">#[test]
    </span><span class="kw">fn </span>deserialize_test_unit() {
        <span class="kw">let </span>json = <span class="string">r#"
        {
            "env": {
                "currentCoinbase": "0x2adc25665018aa1fe0e6bc666dac8fc2697ff9ba",
                "currentGasLimit": "0x016345785d8a0000",
                "currentNumber": "0x01",
                "currentTimestamp": "0x03e8",
                "currentRandom": "0x0000000000000000000000000000000000000000000000000000000000000000",
                "currentDifficulty": "0x00",
                "currentBaseFee": "0x07",
                "currentExcessBlobGas": "0x0e0000"
            },
            "pre": {
                "0xa94f5374fce5edbc8e2a8697c15331677e6ebf0b": {
                    "nonce": "0x00",
                    "balance": "0x04b2e7dc",
                    "code": "0x",
                    "storage": {}
                }
            },
            "transaction": {
                "nonce": "0x00",
                "maxPriorityFeePerGas": "0x00",
                "maxFeePerGas": "0x07",
                "gasLimit": [
                    "0x6a44"
                ],
                "to": "0x8a0a19589531694250d570040a0c4b74576919b8",
                "value": [
                    "0x00"
                ],
                "data": [
                    "0x00"
                ],
                "accessLists": [
                    [
                        {
                            "address": "0x0000000000000000000000000000000000000064",
                            "storageKeys": [
                                "0x0000000000000000000000000000000000000000000000000000000000000064",
                                "0x00000000000000000000000000000000000000000000000000000000000000c8"
                            ]
                        }
                    ]
                ],
                "maxFeePerBlobGas": "0x64",
                "blobVersionedHashes": [
                    "0x0100000000000000000000000000000000000000000000000000000000000000",
                    "0x0100000000000000000000000000000000000000000000000000000000000001",
                    "0x0100000000000000000000000000000000000000000000000000000000000002",
                    "0x0100000000000000000000000000000000000000000000000000000000000003",
                    "0x0100000000000000000000000000000000000000000000000000000000000004",
                    "0x0100000000000000000000000000000000000000000000000000000000000005"
                ],
                "sender": "0xa94f5374fce5edbc8e2a8697c15331677e6ebf0b",
                "secretKey": "0x45a915e4d060149eb4365960e6a7a45f334393093061116b197e3240065ff2d8"
            },
            "post": {
                "Cancun": [
                    {
                        "hash": "0x70151ef6e11989505a79932f38c191bdbb22a2ff455460ddc53ef3b056d378ff",
                        "logs": "0x1dcc4de8dec75d7aab85b567b6ccd41ad312451b948a7413f0a142fd40d49347",
                        "txbytes": "0x03f9018701808007826a44948a0a19589531694250d570040a0c4b74576919b88000f85bf859940000000000000000000000000000000000000064f842a00000000000000000000000000000000000000000000000000000000000000064a000000000000000000000000000000000000000000000000000000000000000c864f8c6a00100000000000000000000000000000000000000000000000000000000000000a00100000000000000000000000000000000000000000000000000000000000001a00100000000000000000000000000000000000000000000000000000000000002a00100000000000000000000000000000000000000000000000000000000000003a00100000000000000000000000000000000000000000000000000000000000004a0010000000000000000000000000000000000000000000000000000000000000501a01fd714a1b7065e945bffbe064dfe72b1f0a9f482cd3d03ffa78884bd9331b19ea04066aba133e51239e007914fc7ee21bd2591c39d1d201b3b813f03d2f4ca9088",
                        "indexes": {
                            "data": 0,
                            "gas": 0,
                            "value": 0
                        },
                        "state": {
                            "0xa94f5374fce5edbc8e2a8697c15331677e6ebf0b": {
                                "nonce": "0x01",
                                "balance": "0x04a40000",
                                "code": "0x",
                                "storage": {}
                            }
                        }
                    }
                ]
            },
            "config": {
                "blobSchedule": {
                    "Cancun": {
                        "target": "0x03",
                        "max": "0x06",
                        "baseFeeUpdateFraction": "0x32f0ed"
                    }
                },
                "chainid": "0x01"
            },
            "_info": {
                "hash": "0xd992bae1a97e5e6134325c6b02b86087700fef37fa53a6f5a72c50829d8fca77",
                "comment": "`execution-spec-tests` generated test",
                "filling-transition-tool": "ethereum-spec-evm-resolver 0.0.5",
                "description": "Test function documentation:\n\n    Check that transaction is accepted when user can exactly afford the blob gas specified (and\n    max_fee_per_gas would be enough for current block).\n\n    - Transactions with max fee equal or higher than current block base fee\n    - Transactions with and without priority fee\n    - Transactions with and without value\n    - Transactions with and without calldata\n    - Transactions with max fee per blob gas lower or higher than the priority fee",
                "url": "https://github.com/ethereum/execution-spec-tests/tree/v4.1.0/tests/cancun/eip4844_blobs/test_blob_txs.py#L633",
                "fixture-format": "state_test",
                "reference-spec": "https://github.com/ethereum/EIPs/blob/master/EIPS/eip-4844.md",
                "reference-spec-version": "de2e4a46ad93fc04e6fe3174dc6e90a3307bdb5f",
                "eels-resolution": {
                    "git-url": "https://github.com/ethereum/execution-specs.git",
                    "branch": "master",
                    "commit": "78fb726158c69d8fa164e28f195fabf6ab59b915"
                }
            }
        }
        "#</span>;
        <span class="kw">let </span>test_unit: StateTestUnit = serde_json::from_str(json).unwrap();
        <span class="macro">println!</span>(<span class="string">"{:?}"</span>, test_unit);
    }
}
</code></pre></div></section></main></body></html>