<!DOCTYPE html><html lang="en"><head><meta charset="utf-8"><meta name="viewport" content="width=device-width, initial-scale=1.0"><meta name="generator" content="rustdoc"><meta name="description" content="Source of the Rust file `crates/eest_types/src/blockchain/block.rs`."><title>block.rs - source</title><script>if(window.location.protocol!=="file:")document.head.insertAdjacentHTML("beforeend","SourceSerif4-Regular-6b053e98.ttf.woff2,FiraSans-Italic-81dc35de.woff2,FiraSans-Regular-0fe48ade.woff2,FiraSans-MediumItalic-ccf7e434.woff2,FiraSans-Medium-e1aa3f0a.woff2,SourceCodePro-Regular-8badfe75.ttf.woff2,SourceCodePro-Semibold-aa29a496.ttf.woff2".split(",").map(f=>`<link rel="preload" as="font" type="font/woff2"href="../../../static.files/${f}">`).join(""))</script><link rel="stylesheet" href="../../../static.files/normalize-9960930a.css"><link rel="stylesheet" href="../../../static.files/rustdoc-e56847b5.css"><meta name="rustdoc-vars" data-root-path="../../../" data-static-root-path="../../../static.files/" data-current-crate="eest_types" data-themes="" data-resource-suffix="" data-rustdoc-version="1.92.0-nightly (fa3155a64 2025-09-30)" data-channel="nightly" data-search-js="search-e256b49e.js" data-stringdex-js="stringdex-828709d0.js" data-settings-js="settings-c38705f0.js" ><script src="../../../static.files/storage-e2aeef58.js"></script><script defer src="../../../static.files/src-script-813739b1.js"></script><script defer src="../../../src-files.js"></script><script defer src="../../../static.files/main-ce535bd0.js"></script><noscript><link rel="stylesheet" href="../../../static.files/noscript-263c88ec.css"></noscript><link rel="alternate icon" type="image/png" href="../../../static.files/favicon-32x32-eab170b8.png"><link rel="icon" type="image/svg+xml" href="../../../static.files/favicon-044be391.svg"></head><body class="rustdoc src"><!--[if lte IE 11]><div class="warning">This old browser is unsupported and will most likely display funky things.</div><![endif]--><nav class="sidebar"><div class="src-sidebar-title"><h2>Files</h2></div></nav><div class="sidebar-resizer" title="Drag to resize sidebar"></div><main><section id="main-content" class="content"><div class="main-heading"><h1><div class="sub-heading">eest_types/blockchain/</div>block.rs</h1><rustdoc-toolbar></rustdoc-toolbar></div><div class="example-wrap digits-3"><pre class="rust"><code><a href=#1 id=1 data-nosnippet>1</a><span class="kw">use </span><span class="kw">super</span>::Transaction;
<a href=#2 id=2 data-nosnippet>2</a><span class="kw">use </span>cfx_rpc_primitives::Bytes;
<a href=#3 id=3 data-nosnippet>3</a><span class="kw">use </span>cfx_types::{Address, Bloom, H256, U256, U64};
<a href=#4 id=4 data-nosnippet>4</a><span class="kw">use </span>serde::Deserialize;
<a href=#5 id=5 data-nosnippet>5</a>
<a href=#6 id=6 data-nosnippet>6</a><span class="attr">#[derive(Debug, PartialEq, Eq, Deserialize)]
<a href=#7 id=7 data-nosnippet>7</a>#[serde(rename_all = <span class="string">"camelCase"</span>)]
<a href=#8 id=8 data-nosnippet>8</a></span><span class="kw">pub struct </span>BlockHeader {
<a href=#9 id=9 data-nosnippet>9</a>    <span class="kw">pub </span>parent_hash: H256,
<a href=#10 id=10 data-nosnippet>10</a>    <span class="kw">pub </span>uncle_hash: H256,
<a href=#11 id=11 data-nosnippet>11</a>    <span class="kw">pub </span>coinbase: Address,
<a href=#12 id=12 data-nosnippet>12</a>    <span class="kw">pub </span>state_root: H256,
<a href=#13 id=13 data-nosnippet>13</a>    <span class="kw">pub </span>transactions_trie: H256,
<a href=#14 id=14 data-nosnippet>14</a>    <span class="kw">pub </span>receipt_trie: H256,
<a href=#15 id=15 data-nosnippet>15</a>    <span class="kw">pub </span>bloom: Bloom,
<a href=#16 id=16 data-nosnippet>16</a>    <span class="kw">pub </span>difficulty: U256,
<a href=#17 id=17 data-nosnippet>17</a>    <span class="kw">pub </span>number: U256,
<a href=#18 id=18 data-nosnippet>18</a>    <span class="kw">pub </span>gas_limit: U256,
<a href=#19 id=19 data-nosnippet>19</a>    <span class="kw">pub </span>gas_used: U256,
<a href=#20 id=20 data-nosnippet>20</a>    <span class="kw">pub </span>timestamp: U256,
<a href=#21 id=21 data-nosnippet>21</a>    <span class="kw">pub </span>extra_data: Bytes,
<a href=#22 id=22 data-nosnippet>22</a>    <span class="kw">pub </span>mix_hash: H256,
<a href=#23 id=23 data-nosnippet>23</a>    <span class="kw">pub </span>nonce: U64, <span class="comment">// Bytes of a 8-byte fixed length.
<a href=#24 id=24 data-nosnippet>24</a>    </span><span class="kw">pub </span>base_fee_per_gas: <span class="prelude-ty">Option</span>&lt;U256&gt;,
<a href=#25 id=25 data-nosnippet>25</a>    <span class="kw">pub </span>withdrawals_root: <span class="prelude-ty">Option</span>&lt;H256&gt;,
<a href=#26 id=26 data-nosnippet>26</a>    <span class="kw">pub </span>blob_gas_used: <span class="prelude-ty">Option</span>&lt;U256&gt;,
<a href=#27 id=27 data-nosnippet>27</a>    <span class="kw">pub </span>excess_blob_gas: <span class="prelude-ty">Option</span>&lt;U256&gt;,
<a href=#28 id=28 data-nosnippet>28</a>    <span class="kw">pub </span>parent_beacon_block_root: <span class="prelude-ty">Option</span>&lt;H256&gt;,
<a href=#29 id=29 data-nosnippet>29</a>    <span class="kw">pub </span>requests_hash: <span class="prelude-ty">Option</span>&lt;H256&gt;,
<a href=#30 id=30 data-nosnippet>30</a>    <span class="kw">pub </span>hash: H256,
<a href=#31 id=31 data-nosnippet>31</a>}
<a href=#32 id=32 data-nosnippet>32</a>
<a href=#33 id=33 data-nosnippet>33</a><span class="attr">#[derive(Debug, PartialEq, Eq, Deserialize)]
<a href=#34 id=34 data-nosnippet>34</a>#[serde(rename_all = <span class="string">"camelCase"</span>)]
<a href=#35 id=35 data-nosnippet>35</a></span><span class="kw">pub struct </span>Block {
<a href=#36 id=36 data-nosnippet>36</a>    <span class="kw">pub </span>block_header: BlockHeader,
<a href=#37 id=37 data-nosnippet>37</a>    <span class="kw">pub </span>transactions: Vec&lt;Transaction&gt;,
<a href=#38 id=38 data-nosnippet>38</a>    <span class="kw">pub </span>uncle_headers: Vec&lt;BlockHeader&gt;,
<a href=#39 id=39 data-nosnippet>39</a>    <span class="kw">pub </span>withdrawals: <span class="prelude-ty">Option</span>&lt;Vec&lt;Withdrawal&gt;&gt;,
<a href=#40 id=40 data-nosnippet>40</a>    <span class="kw">pub </span>rlp: Bytes,
<a href=#41 id=41 data-nosnippet>41</a>    <span class="kw">pub </span>blocknumber: <span class="prelude-ty">Option</span>&lt;String&gt;, <span class="comment">// TODO deserialize to u64
<a href=#42 id=42 data-nosnippet>42</a></span>}
<a href=#43 id=43 data-nosnippet>43</a>
<a href=#44 id=44 data-nosnippet>44</a><span class="attr">#[derive(Debug, PartialEq, Eq, Deserialize)]
<a href=#45 id=45 data-nosnippet>45</a>#[serde(rename_all = <span class="string">"camelCase"</span>)]
<a href=#46 id=46 data-nosnippet>46</a></span><span class="kw">pub struct </span>Withdrawal {
<a href=#47 id=47 data-nosnippet>47</a>    index: U256,
<a href=#48 id=48 data-nosnippet>48</a>    validator_index: U256,
<a href=#49 id=49 data-nosnippet>49</a>    address: Address,
<a href=#50 id=50 data-nosnippet>50</a>    amount: U256,
<a href=#51 id=51 data-nosnippet>51</a>}
<a href=#52 id=52 data-nosnippet>52</a>
<a href=#53 id=53 data-nosnippet>53</a><span class="attr">#[derive(Debug, PartialEq, Eq, Deserialize)]
<a href=#54 id=54 data-nosnippet>54</a>#[serde(rename_all = <span class="string">"camelCase"</span>)]
<a href=#55 id=55 data-nosnippet>55</a></span><span class="kw">pub struct </span>InvalidBlock {
<a href=#56 id=56 data-nosnippet>56</a>    <span class="kw">pub </span>rlp: Bytes,
<a href=#57 id=57 data-nosnippet>57</a>    <span class="kw">pub </span>expect_exception: String,
<a href=#58 id=58 data-nosnippet>58</a>    <span class="kw">pub </span>rlp_decoded: <span class="prelude-ty">Option</span>&lt;Block&gt;,
<a href=#59 id=59 data-nosnippet>59</a>}
<a href=#60 id=60 data-nosnippet>60</a>
<a href=#61 id=61 data-nosnippet>61</a><span class="attr">#[cfg(test)]
<a href=#62 id=62 data-nosnippet>62</a></span><span class="kw">mod </span>tests {
<a href=#63 id=63 data-nosnippet>63</a>    <span class="kw">use super</span>::<span class="kw-2">*</span>;
<a href=#64 id=64 data-nosnippet>64</a>
<a href=#65 id=65 data-nosnippet>65</a>    <span class="attr">#[test]
<a href=#66 id=66 data-nosnippet>66</a>    </span><span class="kw">fn </span>recover_withdrawal() {
<a href=#67 id=67 data-nosnippet>67</a>        <span class="kw">let </span>json_str = <span class="string">r#"{
<a href=#68 id=68 data-nosnippet>68</a>            "index": "0x00",
<a href=#69 id=69 data-nosnippet>69</a>            "validatorIndex": "0x00",
<a href=#70 id=70 data-nosnippet>70</a>            "address": "0x0000000000000000000000000000000000000002",
<a href=#71 id=71 data-nosnippet>71</a>            "amount": "0x01"
<a href=#72 id=72 data-nosnippet>72</a>        }"#</span>;
<a href=#73 id=73 data-nosnippet>73</a>
<a href=#74 id=74 data-nosnippet>74</a>        <span class="kw">let </span>data: Withdrawal = serde_json::from_str(json_str).unwrap();
<a href=#75 id=75 data-nosnippet>75</a>        <span class="macro">assert_eq!</span>(data.amount, U256::from(<span class="number">1</span>));
<a href=#76 id=76 data-nosnippet>76</a>    }
<a href=#77 id=77 data-nosnippet>77</a>
<a href=#78 id=78 data-nosnippet>78</a>    <span class="attr">#[test]
<a href=#79 id=79 data-nosnippet>79</a>    </span><span class="kw">fn </span>recover_block_header() {
<a href=#80 id=80 data-nosnippet>80</a>        <span class="kw">let </span>json_str = <span class="string">r#"{
<a href=#81 id=81 data-nosnippet>81</a>            "parentHash": "0x75f987ffc84f12861a575922ee8620845a804f7c79f2dfeef0ca352d0fe1c46a",
<a href=#82 id=82 data-nosnippet>82</a>            "uncleHash": "0x1dcc4de8dec75d7aab85b567b6ccd41ad312451b948a7413f0a142fd40d49347",
<a href=#83 id=83 data-nosnippet>83</a>            "coinbase": "0x2adc25665018aa1fe0e6bc666dac8fc2697ff9ba",
<a href=#84 id=84 data-nosnippet>84</a>            "stateRoot": "0xc2a77e1e008094eb69970a5ca782d3db246a13f27d8eb9f9dbda741f594c4f32",
<a href=#85 id=85 data-nosnippet>85</a>            "transactionsTrie": "0x56e81f171bcc55a6ff8345e692c0f86e5b48e01b996cadc001622fb5e363b421",
<a href=#86 id=86 data-nosnippet>86</a>            "receiptTrie": "0x56e81f171bcc55a6ff8345e692c0f86e5b48e01b996cadc001622fb5e363b421",
<a href=#87 id=87 data-nosnippet>87</a>            "bloom": "0x00000000000000000000000000000000000000000000000000000000000000000000000000000000000000000000000000000000000000000000000000000000000000000000000000000000000000000000000000000000000000000000000000000000000000000000000000000000000000000000000000000000000000000000000000000000000000000000000000000000000000000000000000000000000000000000000000000000000000000000000000000000000000000000000000000000000000000000000000000000000000000000000000000000000000000000000000000000000000000000000000000000000000000000000000000000",
<a href=#88 id=88 data-nosnippet>88</a>            "difficulty": "0x00",
<a href=#89 id=89 data-nosnippet>89</a>            "number": "0x01",
<a href=#90 id=90 data-nosnippet>90</a>            "gasLimit": "0x016345785d8a0000",
<a href=#91 id=91 data-nosnippet>91</a>            "gasUsed": "0x00",
<a href=#92 id=92 data-nosnippet>92</a>            "timestamp": "0x0c",
<a href=#93 id=93 data-nosnippet>93</a>            "extraData": "0x",
<a href=#94 id=94 data-nosnippet>94</a>            "mixHash": "0x0000000000000000000000000000000000000000000000000000000000000000",
<a href=#95 id=95 data-nosnippet>95</a>            "nonce": "0x0000000000000000",
<a href=#96 id=96 data-nosnippet>96</a>            "baseFeePerGas": "0x07",
<a href=#97 id=97 data-nosnippet>97</a>            "withdrawalsRoot": "0xe69c7b5847f8c1bb8052999046c12ba942ad4d05e5627b0d339ec7772574e544",
<a href=#98 id=98 data-nosnippet>98</a>            "blobGasUsed": "0x00",
<a href=#99 id=99 data-nosnippet>99</a>            "excessBlobGas": "0x00",
<a href=#100 id=100 data-nosnippet>100</a>            "parentBeaconBlockRoot": "0x0000000000000000000000000000000000000000000000000000000000000000",
<a href=#101 id=101 data-nosnippet>101</a>            "hash": "0xe6f643b08c3757450d93d5bfa27168a2af5a861ac3bd2793ca57650f9d77a50c"
<a href=#102 id=102 data-nosnippet>102</a>        }"#</span>;
<a href=#103 id=103 data-nosnippet>103</a>
<a href=#104 id=104 data-nosnippet>104</a>        <span class="kw">let </span>data: BlockHeader = serde_json::from_str(json_str).unwrap();
<a href=#105 id=105 data-nosnippet>105</a>        <span class="macro">assert_eq!</span>(data.number, U256::from(<span class="number">1</span>));
<a href=#106 id=106 data-nosnippet>106</a>    }
<a href=#107 id=107 data-nosnippet>107</a>
<a href=#108 id=108 data-nosnippet>108</a>    <span class="attr">#[test]
<a href=#109 id=109 data-nosnippet>109</a>    </span><span class="kw">fn </span>recover_block_basic() {
<a href=#110 id=110 data-nosnippet>110</a>        <span class="kw">let </span>json_str = <span class="string">r#"{
<a href=#111 id=111 data-nosnippet>111</a>            "blockHeader": {
<a href=#112 id=112 data-nosnippet>112</a>                "parentHash": "0x75f987ffc84f12861a575922ee8620845a804f7c79f2dfeef0ca352d0fe1c46a",
<a href=#113 id=113 data-nosnippet>113</a>                "uncleHash": "0x1dcc4de8dec75d7aab85b567b6ccd41ad312451b948a7413f0a142fd40d49347",
<a href=#114 id=114 data-nosnippet>114</a>                "coinbase": "0x2adc25665018aa1fe0e6bc666dac8fc2697ff9ba",
<a href=#115 id=115 data-nosnippet>115</a>                "stateRoot": "0xc2a77e1e008094eb69970a5ca782d3db246a13f27d8eb9f9dbda741f594c4f32",
<a href=#116 id=116 data-nosnippet>116</a>                "transactionsTrie": "0x56e81f171bcc55a6ff8345e692c0f86e5b48e01b996cadc001622fb5e363b421",
<a href=#117 id=117 data-nosnippet>117</a>                "receiptTrie": "0x56e81f171bcc55a6ff8345e692c0f86e5b48e01b996cadc001622fb5e363b421",
<a href=#118 id=118 data-nosnippet>118</a>                "bloom": "0x00000000000000000000000000000000000000000000000000000000000000000000000000000000000000000000000000000000000000000000000000000000000000000000000000000000000000000000000000000000000000000000000000000000000000000000000000000000000000000000000000000000000000000000000000000000000000000000000000000000000000000000000000000000000000000000000000000000000000000000000000000000000000000000000000000000000000000000000000000000000000000000000000000000000000000000000000000000000000000000000000000000000000000000000000000000",
<a href=#119 id=119 data-nosnippet>119</a>                "difficulty": "0x00",
<a href=#120 id=120 data-nosnippet>120</a>                "number": "0x01",
<a href=#121 id=121 data-nosnippet>121</a>                "gasLimit": "0x016345785d8a0000",
<a href=#122 id=122 data-nosnippet>122</a>                "gasUsed": "0x00",
<a href=#123 id=123 data-nosnippet>123</a>                "timestamp": "0x0c",
<a href=#124 id=124 data-nosnippet>124</a>                "extraData": "0x",
<a href=#125 id=125 data-nosnippet>125</a>                "mixHash": "0x0000000000000000000000000000000000000000000000000000000000000000",
<a href=#126 id=126 data-nosnippet>126</a>                "nonce": "0x0000000000000000",
<a href=#127 id=127 data-nosnippet>127</a>                "baseFeePerGas": "0x07",
<a href=#128 id=128 data-nosnippet>128</a>                "withdrawalsRoot": "0xe69c7b5847f8c1bb8052999046c12ba942ad4d05e5627b0d339ec7772574e544",
<a href=#129 id=129 data-nosnippet>129</a>                "blobGasUsed": "0x00",
<a href=#130 id=130 data-nosnippet>130</a>                "excessBlobGas": "0x00",
<a href=#131 id=131 data-nosnippet>131</a>                "parentBeaconBlockRoot": "0x0000000000000000000000000000000000000000000000000000000000000000",
<a href=#132 id=132 data-nosnippet>132</a>                "hash": "0xe6f643b08c3757450d93d5bfa27168a2af5a861ac3bd2793ca57650f9d77a50c"
<a href=#133 id=133 data-nosnippet>133</a>            },
<a href=#134 id=134 data-nosnippet>134</a>            "transactions": [
<a href=#135 id=135 data-nosnippet>135</a>                {
<a href=#136 id=136 data-nosnippet>136</a>                    "type": "0x00",
<a href=#137 id=137 data-nosnippet>137</a>                    "chainId": "0x01",
<a href=#138 id=138 data-nosnippet>138</a>                    "nonce": "0x00",
<a href=#139 id=139 data-nosnippet>139</a>                    "gasPrice": "0x0a",
<a href=#140 id=140 data-nosnippet>140</a>                    "gasLimit": "0x07a120",
<a href=#141 id=141 data-nosnippet>141</a>                    "to": "0x0000000000000000000000000000000000001000",
<a href=#142 id=142 data-nosnippet>142</a>                    "value": "0x00",
<a href=#143 id=143 data-nosnippet>143</a>                    "data": "0x00000000000000000000000000000000000000000000000000000000000000010000000000000000000000000000000000000000000000000000000000000020000000000000000000000000000000000000000000000000000000000000002003fffffffffffffffffffffffffffffffffffffffffffffffffffffffefffffc2efffffffffffffffffffffffffffffffffffffffffffffffffffffffefffffc2f",
<a href=#144 id=144 data-nosnippet>144</a>                    "v": "0x26",
<a href=#145 id=145 data-nosnippet>145</a>                    "r": "0xb71d8dd5ac327ec1b822930c066a9d0931a26f8529cbd0dca51a6a1f3fc508c9",
<a href=#146 id=146 data-nosnippet>146</a>                    "s": "0x63698823fb964779539d8fd4d016e7326cbd9dab987233458980d422776167b5",
<a href=#147 id=147 data-nosnippet>147</a>                    "sender": "0xa94f5374fce5edbc8e2a8697c15331677e6ebf0b"
<a href=#148 id=148 data-nosnippet>148</a>                }
<a href=#149 id=149 data-nosnippet>149</a>            ],
<a href=#150 id=150 data-nosnippet>150</a>            "uncleHeaders": [],
<a href=#151 id=151 data-nosnippet>151</a>            "withdrawals": [
<a href=#152 id=152 data-nosnippet>152</a>                {
<a href=#153 id=153 data-nosnippet>153</a>                    "index": "0x00",
<a href=#154 id=154 data-nosnippet>154</a>                    "validatorIndex": "0x00",
<a href=#155 id=155 data-nosnippet>155</a>                    "address": "0x0000000000000000000000000000000000000002",
<a href=#156 id=156 data-nosnippet>156</a>                    "amount": "0x01"
<a href=#157 id=157 data-nosnippet>157</a>                }
<a href=#158 id=158 data-nosnippet>158</a>            ],
<a href=#159 id=159 data-nosnippet>159</a>            "rlp": "0xf90259f9023aa075f987ffc84f12861a575922ee8620845a804f7c79f2dfeef0ca352d0fe1c46aa01dcc4de8dec75d7aab85b567b6ccd41ad312451b948a7413f0a142fd40d49347942adc25665018aa1fe0e6bc666dac8fc2697ff9baa0c2a77e1e008094eb69970a5ca782d3db246a13f27d8eb9f9dbda741f594c4f32a056e81f171bcc55a6ff8345e692c0f86e5b48e01b996cadc001622fb5e363b421a056e81f171bcc55a6ff8345e692c0f86e5b48e01b996cadc001622fb5e363b421b9010000000000000000000000000000000000000000000000000000000000000000000000000000000000000000000000000000000000000000000000000000000000000000000000000000000000000000000000000000000000000000000000000000000000000000000000000000000000000000000000000000000000000000000000000000000000000000000000000000000000000000000000000000000000000000000000000000000000000000000000000000000000000000000000000000000000000000000000000000000000000000000000000000000000000000000000000000000000000000000000000000000000000000000000000000000000800188016345785d8a0000800c80a0000000000000000000000000000000000000000000000000000000000000000088000000000000000007a0e69c7b5847f8c1bb8052999046c12ba942ad4d05e5627b0d339ec7772574e5448080a00000000000000000000000000000000000000000000000000000000000000000c0c0d9d8808094000000000000000000000000000000000000000201",
<a href=#160 id=160 data-nosnippet>160</a>            "blocknumber": "1"
<a href=#161 id=161 data-nosnippet>161</a>        }"#</span>;
<a href=#162 id=162 data-nosnippet>162</a>
<a href=#163 id=163 data-nosnippet>163</a>        <span class="kw">let </span>data: Block = serde_json::from_str(json_str).unwrap();
<a href=#164 id=164 data-nosnippet>164</a>        <span class="macro">assert_eq!</span>(data.blocknumber.is_some(), <span class="bool-val">true</span>);
<a href=#165 id=165 data-nosnippet>165</a>        <span class="macro">assert_eq!</span>(data.blocknumber.unwrap().parse(), <span class="prelude-val">Ok</span>(<span class="number">1</span>));
<a href=#166 id=166 data-nosnippet>166</a>    }
<a href=#167 id=167 data-nosnippet>167</a>
<a href=#168 id=168 data-nosnippet>168</a>    <span class="attr">#[test]
<a href=#169 id=169 data-nosnippet>169</a>    </span><span class="kw">fn </span>recover_invalid_block() {
<a href=#170 id=170 data-nosnippet>170</a>        <span class="kw">let </span>json_str = <span class="string">r#"{
<a href=#171 id=171 data-nosnippet>171</a>            "rlp": "0xf9035ef90242a0d9afd2e454bd4dbaba688c0f8a0463689e50da4fe4bd675a9fb59434bedc2d55a01dcc4de8dec75d7aab85b567b6ccd41ad312451b948a7413f0a142fd40d49347942adc25665018aa1fe0e6bc666dac8fc2697ff9baa00db85f0bc22f84493da39f9c08113aea13559eb14f9cac67e5db5007d01c5df4a01cbe160c60be9946c1477734baf89a03a0d6d75b8d64b3bed9d3954a1976c656a0eaa8c40899a61ae59615cf9985f5e2194f8fd2b57d273be63bde6733e89b12abb9010000000000000000000000000000000000000000000000000000000000000000000000000000000000000000000000000000000000000000000000000000000000000000000000000000000000000000000000000000000000000000000000000000000000000000000000000000000000000000000000000000000000000000000000000000000000000000000000000000000000000000000000000000000000000000000000000000000000000000000000000000000000000000000000000000000000000000000000000000000000000000000000000000000000000000000000000000000000000000000000000000000000000000000000000000000000800188016345785d8a00008252080c80a0000000000000000000000000000000000000000000000000000000000000000088000000000000000007a056e81f171bcc55a6ff8345e692c0f86e5b48e01b996cadc001622fb5e363b42183040000830e0000a00000000000000000000000000000000000000000000000000000000000000000f90114b88803f88501808007825208948a0a19589531694250d570040a0c4b74576919b80180c001e1a0010000000000000000000000000000000000000000000000000000000000000001a06c120e55aeb31122c5caad29e69d28ec90abb71e089e0cdf4aebbf51bbc46a89a067983552dabf029ffb7ac58209a620d4a98eeeaf3df55bc9eb8e7684051ac70ab88803f88501018007825208948a0a19589531694250d570040a0c4b74576919b80180c001e1a0010000000000000000000000000000000000000000000000000000000000000080a04fc1b52cdbb48421d17e7ccfc33496c95bae6ecfd8f29816699f151d92e4ed9ca074271236ba3a66db6ea60f4482287b8f52de28a6a525626c55e741c54296309bc0c0",
<a href=#172 id=172 data-nosnippet>172</a>            "expectException": "TransactionException.INSUFFICIENT_ACCOUNT_FUNDS",
<a href=#173 id=173 data-nosnippet>173</a>            "rlp_decoded": {
<a href=#174 id=174 data-nosnippet>174</a>                "blockHeader": {
<a href=#175 id=175 data-nosnippet>175</a>                    "parentHash": "0xd9afd2e454bd4dbaba688c0f8a0463689e50da4fe4bd675a9fb59434bedc2d55",
<a href=#176 id=176 data-nosnippet>176</a>                    "uncleHash": "0x1dcc4de8dec75d7aab85b567b6ccd41ad312451b948a7413f0a142fd40d49347",
<a href=#177 id=177 data-nosnippet>177</a>                    "coinbase": "0x2adc25665018aa1fe0e6bc666dac8fc2697ff9ba",
<a href=#178 id=178 data-nosnippet>178</a>                    "stateRoot": "0x0db85f0bc22f84493da39f9c08113aea13559eb14f9cac67e5db5007d01c5df4",
<a href=#179 id=179 data-nosnippet>179</a>                    "transactionsTrie": "0x1cbe160c60be9946c1477734baf89a03a0d6d75b8d64b3bed9d3954a1976c656",
<a href=#180 id=180 data-nosnippet>180</a>                    "receiptTrie": "0xeaa8c40899a61ae59615cf9985f5e2194f8fd2b57d273be63bde6733e89b12ab",
<a href=#181 id=181 data-nosnippet>181</a>                    "bloom": "0x00000000000000000000000000000000000000000000000000000000000000000000000000000000000000000000000000000000000000000000000000000000000000000000000000000000000000000000000000000000000000000000000000000000000000000000000000000000000000000000000000000000000000000000000000000000000000000000000000000000000000000000000000000000000000000000000000000000000000000000000000000000000000000000000000000000000000000000000000000000000000000000000000000000000000000000000000000000000000000000000000000000000000000000000000000000",
<a href=#182 id=182 data-nosnippet>182</a>                    "difficulty": "0x00",
<a href=#183 id=183 data-nosnippet>183</a>                    "number": "0x01",
<a href=#184 id=184 data-nosnippet>184</a>                    "gasLimit": "0x016345785d8a0000",
<a href=#185 id=185 data-nosnippet>185</a>                    "gasUsed": "0x5208",
<a href=#186 id=186 data-nosnippet>186</a>                    "timestamp": "0x0c",
<a href=#187 id=187 data-nosnippet>187</a>                    "extraData": "0x",
<a href=#188 id=188 data-nosnippet>188</a>                    "mixHash": "0x0000000000000000000000000000000000000000000000000000000000000000",
<a href=#189 id=189 data-nosnippet>189</a>                    "nonce": "0x0000000000000000",
<a href=#190 id=190 data-nosnippet>190</a>                    "baseFeePerGas": "0x07",
<a href=#191 id=191 data-nosnippet>191</a>                    "withdrawalsRoot": "0x56e81f171bcc55a6ff8345e692c0f86e5b48e01b996cadc001622fb5e363b421",
<a href=#192 id=192 data-nosnippet>192</a>                    "blobGasUsed": "0x040000",
<a href=#193 id=193 data-nosnippet>193</a>                    "excessBlobGas": "0x0e0000",
<a href=#194 id=194 data-nosnippet>194</a>                    "parentBeaconBlockRoot": "0x0000000000000000000000000000000000000000000000000000000000000000",
<a href=#195 id=195 data-nosnippet>195</a>                    "hash": "0x4ff059d45cd9c3aaee26292786a7ea8bf6d00ec330bd50e00d2a6b1c9b6ed06e"
<a href=#196 id=196 data-nosnippet>196</a>                },
<a href=#197 id=197 data-nosnippet>197</a>                "transactions": [
<a href=#198 id=198 data-nosnippet>198</a>                    {
<a href=#199 id=199 data-nosnippet>199</a>                        "type": "0x03",
<a href=#200 id=200 data-nosnippet>200</a>                        "chainId": "0x01",
<a href=#201 id=201 data-nosnippet>201</a>                        "nonce": "0x00",
<a href=#202 id=202 data-nosnippet>202</a>                        "maxPriorityFeePerGas": "0x00",
<a href=#203 id=203 data-nosnippet>203</a>                        "maxFeePerGas": "0x07",
<a href=#204 id=204 data-nosnippet>204</a>                        "gasLimit": "0x5208",
<a href=#205 id=205 data-nosnippet>205</a>                        "to": "0x8a0a19589531694250d570040a0c4b74576919b8",
<a href=#206 id=206 data-nosnippet>206</a>                        "value": "0x01",
<a href=#207 id=207 data-nosnippet>207</a>                        "data": "0x",
<a href=#208 id=208 data-nosnippet>208</a>                        "accessList": [],
<a href=#209 id=209 data-nosnippet>209</a>                        "maxFeePerBlobGas": "0x01",
<a href=#210 id=210 data-nosnippet>210</a>                        "blobVersionedHashes": [
<a href=#211 id=211 data-nosnippet>211</a>                            "0x0100000000000000000000000000000000000000000000000000000000000000"
<a href=#212 id=212 data-nosnippet>212</a>                        ],
<a href=#213 id=213 data-nosnippet>213</a>                        "v": "0x01",
<a href=#214 id=214 data-nosnippet>214</a>                        "r": "0x6c120e55aeb31122c5caad29e69d28ec90abb71e089e0cdf4aebbf51bbc46a89",
<a href=#215 id=215 data-nosnippet>215</a>                        "s": "0x67983552dabf029ffb7ac58209a620d4a98eeeaf3df55bc9eb8e7684051ac70a",
<a href=#216 id=216 data-nosnippet>216</a>                        "sender": "0xa94f5374fce5edbc8e2a8697c15331677e6ebf0b"
<a href=#217 id=217 data-nosnippet>217</a>                    },
<a href=#218 id=218 data-nosnippet>218</a>                    {
<a href=#219 id=219 data-nosnippet>219</a>                        "type": "0x03",
<a href=#220 id=220 data-nosnippet>220</a>                        "chainId": "0x01",
<a href=#221 id=221 data-nosnippet>221</a>                        "nonce": "0x01",
<a href=#222 id=222 data-nosnippet>222</a>                        "maxPriorityFeePerGas": "0x00",
<a href=#223 id=223 data-nosnippet>223</a>                        "maxFeePerGas": "0x07",
<a href=#224 id=224 data-nosnippet>224</a>                        "gasLimit": "0x5208",
<a href=#225 id=225 data-nosnippet>225</a>                        "to": "0x8a0a19589531694250d570040a0c4b74576919b8",
<a href=#226 id=226 data-nosnippet>226</a>                        "value": "0x01",
<a href=#227 id=227 data-nosnippet>227</a>                        "data": "0x",
<a href=#228 id=228 data-nosnippet>228</a>                        "accessList": [],
<a href=#229 id=229 data-nosnippet>229</a>                        "maxFeePerBlobGas": "0x01",
<a href=#230 id=230 data-nosnippet>230</a>                        "blobVersionedHashes": [
<a href=#231 id=231 data-nosnippet>231</a>                            "0x0100000000000000000000000000000000000000000000000000000000000000"
<a href=#232 id=232 data-nosnippet>232</a>                        ],
<a href=#233 id=233 data-nosnippet>233</a>                        "v": "0x00",
<a href=#234 id=234 data-nosnippet>234</a>                        "r": "0x4fc1b52cdbb48421d17e7ccfc33496c95bae6ecfd8f29816699f151d92e4ed9c",
<a href=#235 id=235 data-nosnippet>235</a>                        "s": "0x74271236ba3a66db6ea60f4482287b8f52de28a6a525626c55e741c54296309b",
<a href=#236 id=236 data-nosnippet>236</a>                        "sender": "0xa94f5374fce5edbc8e2a8697c15331677e6ebf0b"
<a href=#237 id=237 data-nosnippet>237</a>                    }
<a href=#238 id=238 data-nosnippet>238</a>                ],
<a href=#239 id=239 data-nosnippet>239</a>                "uncleHeaders": [],
<a href=#240 id=240 data-nosnippet>240</a>                "withdrawals": [],
<a href=#241 id=241 data-nosnippet>241</a>                "blocknumber": "1"
<a href=#242 id=242 data-nosnippet>242</a>            }
<a href=#243 id=243 data-nosnippet>243</a>        }"#</span>;
<a href=#244 id=244 data-nosnippet>244</a>
<a href=#245 id=245 data-nosnippet>245</a>        <span class="kw">let </span>data: InvalidBlock = serde_json::from_str(json_str).unwrap();
<a href=#246 id=246 data-nosnippet>246</a>        <span class="macro">assert_eq!</span>(
<a href=#247 id=247 data-nosnippet>247</a>            data.expect_exception,
<a href=#248 id=248 data-nosnippet>248</a>            <span class="string">"TransactionException.INSUFFICIENT_ACCOUNT_FUNDS"
<a href=#249 id=249 data-nosnippet>249</a>        </span>);
<a href=#250 id=250 data-nosnippet>250</a>    }
<a href=#251 id=251 data-nosnippet>251</a>}</code></pre></div></section></main></body></html>